:1000000049C0000054C1000055C0000053C00000AA
:1000100051C000004FC000004DC000004BC00000A8
:1000200049C0000047C0000045C0000043C00000B8
:1000300041C000003FC000003DC000003BC00000C8
:10004000DCC0000037C0000035C0000033C0000035
:1000500031C000002FC000002DC000002BC00000E8
:1000600029C0000027C0000025C0000023C00000F8
:1000700021C000001FC000001DC000001BC0000008
:1000800019C0000017C0000015C0000013C0000018
:1000900011C0000011241FBECFEFD0E1DEBFCDBFE5
:1000A00021E0A0E0B1E001C01D92A530B207E1F768
:1000B0006ED038C1A5CF8FEF81B982B98FE080BBF8
:1000C00081BB1AB881E08BB98CEF87B918B8089555
:1000D0008DE084BD8DE487BD82E080936E0008953D
:1000E00082E08093690081E08DBB089588B18860CB
:1000F00088B982E08A95F1F700C088B1877F88B916
:100100000895CF93DF932FE788E391E0215080405B
:100110009040E1F700C0000080E388B9E7DF2AE6FD
:100120002A95F1F700C0D0E2D8B9E0DFC0E8C8B93D
:10013000DDDF8AE68A95F1F700C0D8B9D7DFC8B904
:10014000D5DF9AE69A95F1F700C018B8CFDF80EFB7
:1001500088B9CCDF2AE62A95F1F700C018B8C6DFC7
:1001600080E188B9C3DF8FE99FE00197F1F700C014
:10017000000018B8BBDF80E688B9B8DF8FE19EE4E5
:100180000197F1F700C00000DF91CF91089593DF50
:100190009FDFA6DF7894B5DF80910401813029F4D8
:1001A00091B3892781BB10920401809103018130B2
:1001B00031F491B382E0892781BB109203018091D1
:1001C0000201813049F791B384E0892781BB109205
:1001D0000201E2CFCF93C82F2AE62A95F1F700C09B
:1001E000807F846088B982DF20E1C29FC001112432
:1001F000846088B97BDFCF9108951F920F920FB66C
:100200000F9211242F933F934F935F936F937F939C
:100210008F939F93AF93BF93409100015091010141
:100220004F5F5F4F509301014093000181E0809345
:1002300004019A01ADECBCEC66D096958795969535
:100240008795969587959C01220F331F880F991FDC
:10025000880F991F880F991F820F931F48175907FE
:1002600019F481E0809303019A0136952795ABE755
:10027000B4E149D09695879562E3689F9001699FA4
:10028000300D11244217530719F481E080930201C5
:10029000BF91AF919F918F917F916F915F914F919E
:1002A0003F912F910F900FBE0F901F9018951F92A6
:1002B0000F920FB60F9211240BB60F922F933F930C
:1002C0004F935F936F937F938F939F93AF93BF935E
:1002D000EF93FF9381E67EDF92B181E0892782B9B7
:1002E000FF91EF91BF91AF919F918F917F916F910E
:1002F0005F914F913F912F910F900BBE0F900FBECA
:100300000F901F901895A29FB001B39FC001A39FAB
:10031000700D811D1124911DB29F700D811D11243E
:08032000911D0895F894FFCF30
:00000001FF
