S01700006779616B6F726C61735F31302E30332E73726563EF
S113000049C000007EC2000062C0000060C0000061
S11300105EC000005CC000005AC0000058C0000070
S113002056C0000054C0000052C0000050C0000080
S11300304EC000004CC000004AC0000048C0000090
S113004006C2000044C0000042C0000040C00000DE
S11300503EC0000072C200003AC0000038C0000078
S113006036C0000097C2000032C0000030C000005B
S11300702EC000002CC000002AC0000028C00000D0
S113008026C0000024C0000022C0000020C00000E0
S11300901EC0000011241FBECFEFD0E1DEBFCDBFD4
S11300A011E0A0E0B1E0E6EDFBE000E00BBF02C030
S11300B007900D92A833B107D9F721E0A8E3B1E086
S11300C001C01D92A634B207E1F73FD182C598CF93
S11300D088B1886088B982E08A95F1F700C088B158
S11300E0877F88B90895CF93DF932FE788E391E062
S11300F0215080409040E1F700C0000080E388B9BF
S1130100E7DF2AE62A95F1F700C0D0E2D8B9E0DFAC
S1130110C0E8C8B9DDDF8AE68A95F1F700C0D8B92E
S1130120D7DFC8B9D5DF9AE69A95F1F700C018B8B9
S1130130CFDF80EF88B9CCDF2AE62A95F1F700C03B
S113014018B8C6DF80E188B9C3DF8FE99FE0019763
S1130150F1F700C0000018B8BBDF80E688B9B8DF4B
S11301608FE19EE40197F1F700C00000DF91CF9189
S11301700895CF93C82F2AE62A95F1F700C0807F0F
S1130180846088B9A5DF20E1C29FC0011124846086
S113019088B99EDFCF9108958AE68A95F1F700C069
S11301A018B896DF80E188B993DF8FE99FE0019763
S11301B0F1F700C000000895CF938736A0F4C82F4C
S11301C0C0682AE62A95F1F700C0807F806888B964
S11301D07FDF20E1C29FC001112488B979DF8AE65C
S11301E08A95F1F700C0CF910895CF93DF93EC0186
S11301F002C02196BEDF88818111FBCFDF91CF91B0
S113020008958FEF81B982B98EE080BB1AB88FE16F
S11302108BB98CEF87B918B80895CF93DF93CDB716
S1130220DEB7E2970FB6F894DEBF0FBECDBF809164
S11302300101823019F1833009F43DC0813009F0A5
S113024055C02091430130914101832F90E0820FEA
S1130250911D9F938F931F923F931F922F9383E13E
S113026091E09F938F93CE0101969F938F93D6D164
S11302700FB6F894DEBF0FBECDBF38C02091430146
S1130280822F90E030914101831B91099F938F93BA
S11302901F923F931F922F938FE191E09F938F932F
S11302A0CE0101969F938F93B9D10FB6F894DEBF18
S11302B00FBECDBF1BC08091430190914101899F26
S11302C0900111243F932F931F929F931F928F931A
S11302D08BE291E09F938F93CE0101969F938F932E
S11302E09DD10FB6F894DEBF0FBECDBF80E064DFB2
S11302F0CE0101967ADF80910001813019F08230BD
S113030061F015C0809144019091450196958795BF
S113031096958795809343010AC0809144019091FA
S11303204501969587959695879580934101EAE7CF
S1130330F0E0808180648083E2960FB6F894DEBF9B
S11303400FBECDBFDF91CF9108955BDF39D140D18E
S1130350CADE83E390E048D141D178948091400192
S1130360813009F061C01092400149990DC080911B
S11303703B01811109C092B182E0892782B981E0F1
S11303808093010180933B01499B06C080913B010E
S1130390813011F410923B014A990EC080913A01C8
S11303A081110AC092B184E0892782B982E08093E6
S11303B0010181E080933A014A9B06C080913A0191
S11303C0813011F410923A014B990EC08091390199
S11303D081110AC092B188E0892782B983E08093B1
S11303E0010181E0809339014B9B06C08091390162
S11303F0813011F4109239014C990EC0809138016A
S113040081110AC092B180E1892782B983E0809387
S1130410010181E0809338014C9B06C08091380132
S1130420813011F41092380180913F01813019F428
S1130430F4DE10923F0180913E01813009F08ECFAD
S113044091B384E0892781BB10923E0187CF1F922C
S11304500F920FB60F9211242F933F934F935F93F4
S11304606F937F938F939F93AF93BF9340913C017E
S113047050913D014F5F5F4F50933D0140933C01CC
S113048081E0809340019A01ADECBCECB8D0969524
S1130490879596958795969587959C01220F331F8E
S11304A0880F991F880F991F880F991F820F931F18
S11304B04817590719F481E080933F019A01369552
S11304C02795ABE7B4E19BD09695879562E3689F47
S11304D09001699F300D11244217530719F481E0EC
S11304E080933E01BF91AF919F918F917F916F91C6
S11304F05F914F913F912F910F900FBE0F901F90DE
S113050018951F920F920FB60F9211248F939F93F9
S1130510809100018F5F80930001833018F081E0A7
S11305208093000192B181E0892782B99F918F91D4
S11305300F900FBE0F901F9018951F920F920FB639
S11305400F9211240BB60F922F933F934F935F9307
S11305506F937F938F939F93AF93BF93EF93FF9387
S11305608091C6008F3711F417DE01C002DEFF91BF
S1130570EF91BF91AF919F918F917F916F915F9117
S11305804F913F912F910F900BBE0F900FBE0F9084
S11305901F9018951F920F920FB60F9211248F93EC
S11305A09F93809178009091790090934501809376
S11305B044019F918F910F900FBE0F901F9018953B
S11305C08DE084BD8DE487BD82E080936E00089544
S11305D082E08093690081E08DBB089510927C00D5
S11305E08FEC80937A0008959093C5008093C400A3
S11305F08EE08093C20088E98093C1000895A29F91
S1130600B001B39FC001A39F700D811D1124911DE2
S1130610B29F700D811D1124911D08950F931F9396
S1130620CF93DF93CDB7DEB72E970FB6F894DEBF26
S11306300FBECDBF0D891E8986E08C831A83098382
S11306408FEF9FE79E838D83AE01475E5F4F6F8977
S1130650788DCE01019610D0EF81F885E00FF11F5F
S113066010822E960FB6F894DEBF0FBECDBFDF9179
S1130670CF911F910F9108952F923F924F925F92C5
S11306806F927F928F929F92AF92BF92CF92DF929E
S1130690EF92FF920F931F93CF93DF93CDB7DEB703
S11306A02B970FB6F894DEBF0FBECDBF6C017B0154
S11306B08A01FC0117821682838181FFBFC1CE01AA
S11306C001963C01F6019381F70193FD859193FF17
S11306D081917F01882309F4ADC1853239F493FDFA
S11306E0859193FF81917F01853221F4B60190E0D9
S11306F0D6D1E8CF912C212C312CFFE1F315D8F081
S11307008B3279F038F4803279F08332A1F4232DDE
S113071020611DC08D3261F0803369F4232D216086
S113072016C0832D8260382EE32DE4603E2E2AC04D
S1130730F32DF8601DC037FC2DC020ED280F2A30A2
S113074040F08E32B9F436FC75C1232D2064322E6C
S113075019C036FE06C08AE0989E200D1124922E00
S113076011C0EAE02E9E200D1124222EF32DF062FA
S11307703F2E08C08C3621F4832D8068382E02C0A9
S1130780883641F4F70193FD859193FF81917F01B0
S11307908111B3CF982F9F7D9554933028F40C5F2B
S11307A01F4F9FE399830DC0833631F0833771F077
S11307B0833509F055C020C0F801808189830E5F1C
S11307C01F4F88248394912C530112C02801F2E016
S11307D04F0E511CF801A080B18036FE03C0692D74
S11307E070E002C06FEF7FEFC5014ED14C01820172
S11307F0F32DFF773F2E15C0280122E0420E511C35
S1130800F801A080B18036FE03C0692D70E002C0FB
S11308106FEF7FEFC5012DD14C01F32DF0683F2E12
S1130820820133FC19C0822D90E088169906A0F449
S1130830B60180E290E033D12A94F5CFF50137FC7C
S1130840859137FE81915F01B60190E028D1211096
S11308502A9421E0821A91088114910479F7E1C065
S1130860843611F0893639F5F80137FE07C0608106
S11308707181828193810C5F1F4F08C060817181F7
S1130880072E000C880B990B0E5F1F4FF32DFF767C
S11308903F2E97FF09C090958095709561957F4F85
S11308A08F4F9F4FF0683F2E2AE030E0A30133D1F1
S11308B0882E861844C0853731F4232D2F7EB22E1E
S11308C02AE030E025C0932D997FB92E8F36C1F0F0
S11308D018F4883579F0AEC0803719F0883721F0E4
S11308E0A9C0E92FE061BE2EB4FE0DC0FB2DF4605B
S11308F0BF2E09C034FE0AC0292F2660B22E06C0BE
S113090028E030E005C020E130E002C020E132E020
S1130910F801B7FE07C060817181828193810C5F09
S11309201F4F06C06081718180E090E00E5F1F4F11
S1130930A301F1D0882E8618FB2DFF773F2E36FEBB
S11309400DC0232D2E7FA22E891458F434FE0BC023
S113095032FC09C0832D8E7EA82E05C0B82CA32C92
S113096003C0B82C01C0B92CA4FE0FC0FE01E80DD1
S1130970F11D8081803321F49A2D997EA92E09C01E
S1130980A2FE06C0B394B39404C08A2D867809F0FD
S1130990B394A3FC10C0A0FE06C0B21480F4280CCB
S11309A0922C9B180DC0B21458F4B60180E290E06A
S11309B076D0B394F8CFB21418F42B1802C0982C44
S11309C0212CA4FE0FC0B60180E390E068D0A2FE03
S11309D016C0A1FC03C088E790E002C088E590E05F
S11309E0B6010CC08A2D867851F0A1FE02C08BE2BC
S11309F001C080E2A7FC8DE2B60190E050D08914DA
S1130A0030F4B60180E390E04AD09A94F8CF8A9407
S1130A10F301E80DF11D8081B60190E040D0811012
S1130A20F6CF222009F44ECEB60180E290E037D012
S1130A302A94F7CFF6018681978102C08FEF9FEF4A
S1130A402B960FB6F894DEBF0FBECDBFDF91CF91CA
S1130A501F910F91FF90EF90DF90CF90BF90AF90D8
S1130A609F908F907F906F905F904F903F902F90CA
S1130A700895FC010590615070400110D8F78095ED
S1130A8090958E0F9F1F0895FC0161507040019056
S1130A900110D8F7809590958E0F9F1F08950F939E
S1130AA01F93CF93DF93FB01238121FD03C08FEFBD
S1130AB09FEF2CC022FF16C04681578124813581C7
S1130AC04217530744F4A081B1819D012F5F3F4F2A
S1130AD0318320838C93268137812F5F3F4F378367
S1130AE0268314C08B01EC01FB010084F185E02D09
S1130AF00995892BE1F6D80116968D919C9117974B
S1130B00019617969C938E931697CE01DF91CF9101
S1130B101F910F910895FA01AA27283051F120312D
S1130B2081F1E8946F936E7F6E5F7F4F8F4F9F4F7D
S1130B30AF4FB1E03ED0B4E03CD0670F781F891FBF
S1130B409A1FA11D680F791F8A1F911DA11D6A0F8D
S1130B50711D811D911DA11D20D009F468943F9140
S1130B602AE0269F11243019305D3193DEF6CF013F
S1130B700895462F4770405D4193B3E00FD0C9F705
S1130B80F6CF462F4F70405D4A3318F0495D31FD72
S1130B904052419302D0A9F7EACFB4E0A6959795C5
S1130BA0879577956795BA95C9F70097610571059B
S1130BB008959B01AC010A2E0694579547953795E5
S1130BC02795BA95C9F7620F731F841F951FA01D3F
S1090BD00895F894FFCF24
S1130BD6010125642E2530336420560025642E2514
S1130BE66C64002533642B2533643D25336400256A
S1130BF633642D2533643D253364002533642A2567
S10B0C0633643D25366400004F
S9030000FC
