:1000000055C000007FC600006FC000006DC000003A
:100010006BC0000069C0000067C0000065C0000040
:1000200063C0000061C000005FC000005DC0000050
:100030005BC0000059C0000057C0000055C0000060
:10004000F1C5000051C0000087C600004DC000008F
:100050004BC0000061C6000047C0000045C0000062
:1000600043C0000063C600003FC000003DC0000068
:100070003BC0000039C0000037C0000035C00000A0
:1000800033C0000031C000002FC000002DC00000B0
:100090002BC000003C0208023C023E023C023E0231
:1000A0003C023C023E023C023E023C0211241FBEC6
:1000B000CFEFD0E1DEBFCDBF11E0A0E0B1E0EAEFCD
:1000C000FCE100E00BBF02C007900D92A439B1071C
:1000D000D9F721E0A4E9B1E001C01D92AD3BB20720
:1000E000E1F7D4D10C947B0E8BCF82E08093D800C3
:1000F00090E29093DB0093E09093DE008093E20027
:1001000084E08093E30083E18093E40080E020C0FA
:10011000982F9295907F9093ED001092EE001092A0
:10012000EF001092F0001092F1001092F200109285
:10013000F3001092F4001092F5001092F600109265
:10014000F7001092F9001092F8001092FA008F5FF9
:100150008F30F0F2EBEDF0E08081806880830895CD
:100160000F938295807F8093ED001092EE008FEFC9
:100170008093F4008093F5008093F6008093F7005D
:10018000222359F1842F880F880F880F8093F00065
:10019000DB01CA01689414F8B695A79597958795E1
:1001A0001694D1F78093F100DB01CA01072E7DE0A0
:1001B000B695A795979587957A95D1F7702D8093E9
:1001C000F200032E35E176956795579547953A9558
:1001D000D1F7302D4093F30010C0842F8295880F03
:1001E000807E8093F200689412F876956795579513
:1001F00047951694D1F74093F30080E1289F900132
:100200001124202B20682093EF000F910895EF9286
:10021000FF920F938295807F8093ED001092EE0005
:10022000222359F1842F880F880F880F8093F000C4
:10023000DB01CA01689414F8B695A7959795879540
:100240001694D1F78093F100DB01CA01072E7DE0FF
:10025000B695A795979587957A95D1F7702D809348
:10026000F200032E35E176956795579547953A95B7
:10027000D1F7302D4093F30010C0842F8295880F62
:10028000807E8093F200689412F876956795579572
:1002900047951694D1F74093F300EFEEF0E080819C
:1002A00090E1299F90011124282B208380E007C032
:1002B000F701E80FF11D90819093FA008F5F80178E
:1002C000B8F300640093EF000F91FF90EF90089552
:1002D00088B1886088B982E08A95F1F700C088B15A
:1002E000877F88B90895CF93DF932FE788E391E064
:1002F000215080409040E1F700C0000080E388B9C1
:10030000E7DF2AE62A95F1F700C0D0E2D8B9E0DFAE
:10031000C0E8C8B9DDDF8AE68A95F1F700C0D8B930
:10032000D7DFC8B9D5DF9AE69A95F1F700C018B8BB
:10033000CFDF80EF88B9CCDF2AE62A95F1F700C03D
:1003400018B8C6DF80E188B9C3DF8FE99FE0019765
:10035000F1F700C0000018B8BBDF80E688B9B8DF4D
:100360008FE19EE40197F1F700C00000DF91CF918B
:100370000895CF93C82F2AE62A95F1F700C0807F11
:10038000846088B9A5DF20E1C29FC0011124846088
:1003900088B99EDFCF910895CF932AE62A95F1F789
:1003A00000C0833460F4C82FC068807F806888B93B
:1003B0008FDF20E1C29FC001112488B989DFCF916E
:1003C0000895CF93DF93EC0102C02196D2DF88819C
:1003D0008111FBCFDF91CF91089511B88FE182B9E0
:1003E0001AB881E08BB98FEF84B915B88EE080BB65
:1003F00081BB8CEF87B918B80895AB0190E0FC0180
:100400003197EC30F105B8F5E65BFF4F0C94740BB7
:100410009B01329522952F7023273F702327AEE34F
:10042000BAE00E947D0B20E931E0BC01629FC0016F
:10043000639F900D729F900D11244817590701F189
:10044000CA0183709927892BE9F49A01369527957B
:1004500036952795ABE7B4E10E947D0B969587957D
:1004600064E6689F9001699F300D1124421753077D
:1004700059F48CE1089508958FE108958EE108956F
:100480008DE108958CE108958DE10895CF93DF9378
:10049000CDB7DEB7E9970FB6F894DEBF0FBECDBF7C
:1004A0009CDFB2D4B9D483E390E026D71CDFBAD462
:1004B00064D51BDE40910001509101016091020161
:1004C0007091030108E02091950180E049DE789465
:1004D0008091A901882309F4E4C1009943C0809167
:1004E000A50181113FC080910601823011F0811178
:1004F00036C095B181E0892785B910920601109226
:10050000970185E0E7E0F1E0ADEAB1E001900D92FE
:100510008A95E1F78091AA019091AB019093A00197
:1005200080939F0180910501813019F4109205019B
:1005300016C0811114C081E08093050110929E01C4
:10054000C0909801D0909901E0909A0100919B0190
:1005500020919C0140919D0160E080E017D581E0F1
:100560008093A501009B06C08091A501813011F404
:100570001092A501049941C08091A10181113DC053
:100580008091060181508230A8F585B191E08927DC
:1005900085B99093060110929701EDEAF1E08EE49F
:1005A00091E49183808380E590E0938382838091BE
:1005B000AA019091AB019093A00180939F0180913B
:1005C0000401813019F41092040114C0811112C089
:1005D00081E080930401C0909801D0909901E0904F
:1005E0009A0100919B0120919C0140919D01609195
:1005F0009E01CCD481E08093A101049B06C0809130
:10060000A101813011F41092A101039961C0809180
:10061000A20181115DC080910601811126C08091E7
:100620009701813021F08F5F8093970102C0109273
:10063000970180919701882319F0813059F045C0C6
:1006400085E0E7E0F1E0ADEAB1E001900D928A9536
:10065000E1F73BC0EDEAF1E08FE492E5918380831E
:1006600081E490E09383828330C0813071F5809182
:100670009701823021F08F5F8093970102C0109222
:10068000970180919701813079F018F08230B1F0B4
:100690001CC0EDEAF1E08EE491E49183808380E573
:1006A00090E09383828311C086E0EDE8F1E0ADEA4B
:1006B000B1E001900D928A95E1F707C0EDEAF1E013
:1006C00085E496E591838083128281E08093A20184
:1006D000039B06C08091A201813011F41092A20107
:1006E00001995EC08091A40181115AC080910601D8
:1006F00081111DC080919701882319F0813061F02C
:100700004CC080919D018B3321F08F5F80939D01C0
:1007100044C010929D0141C080919C01873121F01D
:100720008F5F80939C0139C010929C0136C081304C
:10073000A1F5809197018130B9F018F0823001F174
:100740002CC0609198017091990180919A0155DEB9
:1007500090919B01891721F09F5F90939B011DC091
:1007600081E080939B0119C080919A018C3021F027
:100770008F5F80939A0111C081E080939A010DC030
:100780008091980190919901833328E0920729F094
:100790000196909399018093980181E08093A40140
:1007A000019B06C08091A401813011F41092A40134
:1007B000029966C08091A301811162C080910601F7
:1007C00081111FC080919701882319F0813069F051
:1007D00054C080919D01882321F0815080939D0118
:1007E0004CC08BE380939D0148C080919C0188237D
:1007F00021F0815080939C0140C087E180939C014F
:100800003CC08130D1F5809197018130B1F018F072
:100810008230F9F032C080919B01813021F081500B
:1008200080939B012AC060919801709199018091F9
:100830009A01E3DD80939B0120C080919A01813071
:1008400021F0815080939A0118C08CE080939A0126
:1008500014C08091980190919901803D67E09607BE
:1008600031F00197909399018093980106C083E33A
:1008700098E0909399018093980181E08093A3017F
:10088000029B06C08091A301813011F41092A30154
:1008900080919601803518F4865F809396011092BE
:1008A000A9018091A801882309F42AC18091060139
:1008B000811174C08091AA019091AB0120919F0198
:1008C0003091A001821B930B84369105D0F4809166
:1008D0000501811109C091E1ECE0F1E0DE01119622
:1008E00001900D929A95E1F7813009F057C081E1AE
:1008F000EDE1F1E0DE01119601900D928A95E1F7AC
:100900004DC08091050181111AC08DEA91E09F933D
:100910008F9380919D011F928F9380919C011F92D4
:100920008F938EE291E09F938F93CE0101969F93D8
:100930008F9306D70FB6F894DEBF0FBECDBF809160
:100940000501813059F580919E011F928F9380910E
:100950009D011F928F9380919C011F928F93809194
:100960009B011F928F9380919A011F928F93809188
:1009700099018F93809198018F938DE391E09F93DC
:100980008F93CE0101969F938F93DAD682E0809366
:1009900006010FB6F894DEBF0FBECDBF80910601F1
:1009A000813009F07AC08091AA019091AB01209129
:1009B0009F013091A001821B930B84369105D0F4E6
:1009C00080910401811109C091E1E8E5F1E0DE01C7
:1009D000119601900D929A95E1F7813009F05DC072
:1009E00081E1E9E6F1E0DE01119601900D928A9530
:1009F000E1F753C080910401811120C08DEA91E09C
:100A00009F938F9380919B011F928F9380919A0166
:100A10001F928F93809199018F93809198018F936A
:100A20008AE791E09F938F93CE0101969F938F93D6
:100A300087D60FB6F894DEBF0FBECDBF80910401FC
:100A4000813059F580919E011F928F9380919D0175
:100A50001F928F9380919C011F928F9380919B0195
:100A60001F928F9380919A011F928F938091990189
:100A70008F93809198018F938DE391E09F938F9353
:100A8000CE0101969F938F935BD682E080930601FF
:100A90000FB6F894DEBF0FBECDBF80910601823045
:100AA00041F580919E011F928F9380919D011F922D
:100AB0008F9380919C011F928F9380919B011F9235
:100AC0008F9380919A011F928F93809199018F93B8
:100AD000809198018F938DE391E09F938F93CE0146
:100AE00001969F938F932CD60FB6F894DEBF0FBE5E
:100AF000CDBF80E051DCCE01019663DC1092A801ED
:100B00008091A7018823B9F080910601823089F491
:100B10000F2EF8E9EF2EF1E0FF2EF02D0AE911E09B
:100B20002BE931E04CE951E06DE971E08EE991E0AB
:100B3000EFD21092A7018091A601882309F4C8CCB6
:100B400040919801509199019A01369527953695D3
:100B50002795ABE7B4E1D1D5BC017695679524E63E
:100B6000269FC001279F900D1124BA01681B790BA5
:100B700070919A01872F8E7020919B01322F3370D4
:100B8000422F4C7190919E01592F53709C7370FBB2
:100B9000AA24A0F8B12CF501F695FE2FEE27F795C3
:100BA000E7956E2B6BAB60E4369F90011124869520
:100BB0008862282B2CAB80919C01282F30E0220FDB
:100BC000331F220F331F220F331F842F86958695E4
:100BD000282B2DAB80E4589F9001112480919D011A
:100BE000282B2EAB9695969590639FABCE01C3961E
:100BF0007C0105E020E04EEF51E060E070E080E035
:100C000006DB18AE83E689AFCE01C8967C0102E010
:100C100020E04FEF51E060E070E081E0F8DA109200
:100C2000A60156CC1F920F920FB60F9211242F934C
:100C30003F934F935F936F937F938F939F93AF9364
:100C4000BF934091AA015091AB014F5F5F4F50930A
:100C5000AB014093AA0181E08093A9019A01ADEC18
:100C6000BCEC4BD5969587959695879596958795E7
:100C70009C01220F331F880F991F880F991F880F1F
:100C8000991F820F931F4817590719F481E0809329
:100C9000A8019A0136952795ABE7B4E12ED5969534
:100CA000879562E3689F9001699F300D1124421778
:100CB000530719F481E08093A7019A01369527958F
:100CC00036952795ABE7B4E118D59695879564E6F8
:100CD000689F9001699F300D11244217530719F442
:100CE00081E08093A601BF91AF919F918F917F91F9
:100CF0006F915F914F913F912F910F900FBE0F9089
:100D00001F9018951F920F920FB60F9211240F90FB
:100D10000FBE0F901F9018951F920F920FB60F9253
:100D200011240F900FBE0F901F9018951F920F92D5
:100D30000FB60F9211248F939F938091780090911A
:100D400079009093B4018093B3019F918F910F909C
:100D50000FBE0F901F9018951F920F920FB60F9213
:100D600011240BB60F920F932F933F934F935F93E2
:100D70006F937F938F939F93AF93BF93CF93EF9393
:100D8000FF931092ED008091EE0085FF22C0C0918C
:100D9000EF00CF7080E008C0E82FF0E09091FA00FB
:100DA000EB54FE4F90838F5F8C17B0F3EEEEF0E0C4
:100DB00080818F7D8083409100015091010160917D
:100DC00002017091030108E02091950180E0C8D9EB
:100DD00001C0C0E0C093AC0181E080939401FF9119
:100DE000EF91CF91BF91AF919F918F917F916F9133
:100DF0005F914F913F912F910F910F900BBE0F90EC
:100E00000FBE0F901F9018958DE084BD8DE487BDB7
:100E100082E080936E00089582E08093690081E013
:100E20008DBB089510927C00EAE7F0E08FE88083A4
:100E300080818064808308958436C8F49DEC899F06
:100E4000912D1124492F469546954695440F242F00
:100E5000220F220F420F841B482F96959695969548
:100E600080E1989F90011124842F822B08958FEFA9
:100E70000895982F92959F708F70990F292F220FA8
:100E8000220F920F890F08958F929F92AF92BF9277
:100E9000DF92EF92FF920F931F93CF93DF937C012A
:100EA000562FD42E8C011695079516950795980107
:100EB000ABE7B4E122D4EC01D695C795652F70E07D
:100EC00080E090E0BCD226E636E646E250E496D3D7
:100ED0002DEC3CEC4CE45EE31AD2ECD24B015C010D
:100EE0006D2D70E080E090E0AAD2A501940110D2AF
:100EF0004B015C01BE017727660F771F072E000CA0
:100F0000880B990B9CD29B01AC01C501B401FFD1A8
:100F10004B015C01B70180E090E08FD2A501940104
:100F2000F7D14B015C01B80180E090E086D2C2D2DB
:100F30009B01AC01C501B401EBD14B015C016C2FED
:100F40006695669570E080E090E079D2B3D29B011F
:100F5000AC01C501B401DCD13FD2CB0167E070E048
:100F6000B0D3DF91CF911F910F91FF90EF90DF9061
:100F7000BF90AF909F908F9008951AB881E08BB981
:100F800088E08093B8001092B9000895CF92DF9264
:100F9000EF920F931F93CF93DF93C82F142FD22F6D
:100FA00094EA9093BC009091BC009923E4F790914F
:100FB000B900987F983011F08091B90090ED90932E
:100FC000BB0094E89093BC009091BC009923E4F797
:100FD0009091B900987F983111F08091B900C111BA
:100FE00003C01092BB0005C0C13019F483E08093A8
:100FF000BB0094E89093BC009091BC009923E4F767
:101000009091B900987F983211F08091B900C11188
:1010100005C0862F11DF8093BB0008C0C13031F4BA
:10102000402F6E2DC60130DF8093BB0084E8809393
:10103000BC008091BC008823E4F78091B900887FD0
:10104000883211F08091B900C11105C0812FF4DE02
:101050008093BB0006C0C13021F4802FEDDE809369
:10106000BB0084E88093BC008091BC008823E4F737
:101070008091B900887F883211F08091B900C11148
:1010800005C08D2FD9DE8093BB0006C0C13021F48E
:101090008E2DD2DE8093BB0084E88093BC008091CB
:1010A000BC008823E4F78091B900887F883211F072
:1010B0008091B900C13099F49601369527953695FF
:1010C0002795ABE7B4E119D3969587953C2D24E697
:1010D000829F30191124832FAFDE8093BB0084E8F8
:1010E0008093BC008091BC008823E4F78091B90014
:1010F000887F883211F08091B90084E98093BC0028
:10110000DF91CF911F910F91EF90DF90CF900895D5
:101110008F929F92AF92BF92CF92DF92EF92FF9207
:101120000F931F93CF93DF934C015B016A01E90199
:1011300084EA8093BC008091BC008823E4F780910E
:10114000B900887F883011F08091B90080ED8093DC
:10115000BB0084E88093BC008091BC008823E4F746
:101160008091B900887F883111F08091B900109288
:10117000BB0084E88093BC008091BC008823E4F726
:101180008091B900887F883211F08091B90084EA9B
:101190008093BC008091BC008823E4F78091B90063
:1011A000887F803111F08091B90081ED8093BB0080
:1011B00084E88093BC008091BC008823E4F7809190
:1011C000B900887F803411F08091B90084EC80935D
:1011D000BC008091BC008823E4F78091B900887F2F
:1011E000803511F08091B9008091BB008F7741DE8E
:1011F000F401808384EC8093BC008091BC00882340
:10120000E4F78091B900887F803511F08091B900B2
:101210008091BB002EDEF501808384EC8093BC00BE
:101220008091BC008823E4F78091B900887F8035E5
:1012300011F08091B9008091BB001BDEF601808324
:1012400084EC8093BC008091BC008823E4F78091FB
:10125000B900887F803511F08091B9008091BB0082
:1012600084EC8093BC008091BC008823E4F78091DB
:10127000B900887F803511F08091B9008091BB0062
:10128000F8DD888384EC8093BC008091BC008823C7
:10129000E4F78091B900887F803511F08091B90022
:1012A0008091BB00E6DDF801808384E88093BC0078
:1012B0008091BC008823E4F78091B900887F88354D
:1012C00011F08091B9008091BB00D3DD90E0805394
:1012D000984FF7019183808384E98093BC00DF916C
:1012E000CF911F910F91FF90EF90DF90CF90BF9023
:1012F000AF909F908F9008959093C5008093C40005
:101300008EE08093C20088E98093C1000895505810
:10131000BB27AA270ED021C112D130F017D120F05F
:1013200031F49F3F11F41EF407C10EF4E095E7FB82
:10133000D4C0E92F23D180F3BA176207730784075B
:10134000950718F071F49EF552C10EF4E0950B2E3E
:10135000BA2FA02D0B01B90190010C01CA01A00107
:101360001124FF27591B99F0593F50F4503E68F162
:101370001A16F040A22F232F342F4427585FF3CFA3
:10138000469537952795A795F0405395C9F77EF474
:101390001F16BA0B620B730B840BBAF09150A1F0BD
:1013A000FF0FBB1F661F771F881FC2F70EC0BA0F43
:1013B000621F731F841F48F4879577956795B795CB
:1013C000F7959E3F08F0B3CF9395880F08F09927C3
:1013D000EE0F97958795089504D06894B11108C1D0
:1013E0000895D4D088F09F5790F0B92F9927B7511E
:1013F000A0F0D1F0660F771F881F991F1AF0BA95D9
:10140000C9F712C0B13081F0F2D0B1E00895EFC059
:10141000672F782F8827B85F39F0B93FCCF38695CE
:1014200077956795B395D9F73EF49095809570952B
:1014300061957F4F8F4F9F4F0895E89409C097FBA8
:101440003EF490958095709561957F4F8F4F9F4F9B
:101450009923A9F0F92F96E9BB279395F6958795DF
:1014600077956795B795F111F8CFFAF4BB0F11F4A2
:1014700060FF1BC06F5F7F4F8F4F9F4F16C0882349
:1014800011F096E911C0772321F09EE8872F762F7F
:1014900005C0662371F096E8862F70E060E02AF0C0
:1014A0009A95660F771F881FDAF7880F96958795AC
:1014B00097F9089585D080F09F3740F491110EF090
:1014C00097C060E070E080E89FEB089526F41B165B
:1014D000611D711D811D07C021C097F99F6780E8BC
:1014E00070E060E00895882371F4772321F098502C
:1014F000872B762F07C0662311F499270DC09051D2
:10150000862B70E060E02AF09A95660F771F881F9F
:10151000DAF7880F9695879597F908959F3F31F0F0
:10152000915020F4879577956795B795880F911D11
:101530009695879597F908959FEF80EC089500247C
:101540000A941616170618060906089500240A9428
:1015500012161306140605060895092E0394000CAE
:1015600011F4882352F0BB0F40F4BF2B11F460FF3D
:1015700004C06F5F7F4F8F4F9F4F089557FD905866
:10158000440F551F59F05F3F71F04795880F97FB47
:10159000991F61F09F3F79F0879508951216130601
:1015A0001406551FF2CF4695F1DF08C01616170630
:1015B0001806991FF1CF8695710561050894089565
:1015C000E5DFA0F0BEE7B91788F4BB279F3860F4C9
:1015D0001616B11D672F782F8827985FF7CF86954D
:1015E00077956795B11D93959639C8F30895E8945A
:1015F000BB2766277727CB0197F908950BD0ADCF8E
:101600009EDF28F0A3DF18F0952309F066CF94CF72
:101610001124EECFB3DFA0F3959FD1F3950F50E0E7
:10162000551F629FF001729FBB27F00DB11D639F94
:10163000AA27F00DB11DAA1F649F6627B00DA11D3A
:10164000661F829F2227B00DA11D621F739FB00DE0
:10165000A11D621F839FA00D611D221F749F332750
:10166000A00D611D231F849F600D211D822F762FE9
:101670006A2F11249F5750408AF0E1F088234AF0E6
:10168000EE0FFF1FBB1F661F771F881F9150504032
:10169000A9F79E3F510570F020CFAACF5F3FECF332
:1016A000983EDCF3869577956795B795F795E7951E
:1016B0009F5FC1F7FE2B880F911D9695879597F92F
:1016C000089597FB072E16F4009406D077FD08D0F6
:1016D00023D007FC05D03EF4909581959F4F089547
:1016E000709561957F4F0895EE0FFF1F0024001C39
:1016F0000BBE0790F691E02D0994A29FB001B39F15
:10170000C001A39F700D811D1124911DB29F700D0A
:10171000811D1124911D0895AA1BBB1B51E107C017
:10172000AA1FBB1FA617B70710F0A61BB70B881F71
:10173000991F5A95A9F780959095BC01CD01089500
:101740000F931F93CF93DF93CDB7DEB72E970FB6CE
:10175000F894DEBF0FBECDBF0D891E8986E08C8355
:101760001A8309838FEF9FE79E838D83AE01475EC7
:101770005F4F6F89788DCE01019610D0EF81F8858B
:10178000E00FF11F10822E960FB6F894DEBF0FBE49
:10179000CDBFDF91CF911F910F9108952F923F926E
:1017A0004F925F926F927F928F929F92AF92BF9271
:1017B000CF92DF92EF92FF920F931F93CF93DF931D
:1017C000CDB7DEB72B970FB6F894DEBF0FBECDBFF7
:1017D0006C017B018A01FC0117821682838181FFE3
:1017E000BFC1CE0101963C01F6019381F70193FD43
:1017F000859193FF81917F01882309F4ADC18532E2
:1018000039F493FD859193FF81917F01853221F415
:10181000B60190E0D6D1E8CF912C212C312CFFE1FC
:10182000F315D8F08B3279F038F4803279F08332C6
:10183000A1F4232D20611DC08D3261F0803369F445
:10184000232D216016C0832D8260382EE32DE460A5
:101850003E2E2AC0F32DF8601DC037FC2DC020EDB0
:10186000280F2A3040F08E32B9F436FC75C1232D92
:101870002064322E19C036FE06C08AE0989E200DE4
:101880001124922E11C0EAE02E9E200D1124222E4A
:10189000F32DF0623F2E08C08C3621F4832D806832
:1018A000382E02C0883641F4F70193FD859193FFED
:1018B00081917F018111B3CF982F9F7D95549330F3
:1018C00028F40C5F1F4F9FE399830DC0833631F0DE
:1018D000833771F0833509F055C020C0F80180814D
:1018E00089830E5F1F4F88248394912C530112C06B
:1018F0002801F2E04F0E511CF801A080B18036FEA5
:1019000003C0692D70E002C06FEF7FEFC5014ED1BB
:101910004C018201F32DFF773F2E15C0280122E0F4
:10192000420E511CF801A080B18036FE03C0692D23
:1019300070E002C06FEF7FEFC5012DD14C01F32D98
:10194000F0683F2E820133FC19C0822D90E088168A
:101950009906A0F4B60180E290E033D12A94F5CF45
:10196000F50137FC859137FE81915F01B60190E06A
:1019700028D121102A9421E0821A9108811491041F
:1019800079F7E1C0843611F0893639F5F80137FE70
:1019900007C060817181828193810C5F1F4F08C0F5
:1019A00060817181072E000C880B990B0E5F1F4F11
:1019B000F32DFF763F2E97FF09C090958095709587
:1019C00061957F4F8F4F9F4FF0683F2E2AE030E0A8
:1019D000A30133D1882E861844C0853731F4232DD6
:1019E0002F7EB22E2AE030E025C0932D997FB92EAC
:1019F0008F36C1F018F4883579F0AEC0803719F011
:101A0000883721F0A9C0E92FE061BE2EB4FE0DC0D9
:101A1000FB2DF460BF2E09C034FE0AC0292F2660BA
:101A2000B22E06C028E030E005C020E130E002C060
:101A300020E132E0F801B7FE07C060817181828148
:101A400093810C5F1F4F06C06081718180E090E040
:101A50000E5F1F4FA301F1D0882E8618FB2DFF7754
:101A60003F2E36FE0DC0232D2E7FA22E891458F452
:101A700034FE0BC032FC09C0832D8E7EA82E05C01B
:101A8000B82CA32C03C0B82C01C0B92CA4FE0FC0E5
:101A9000FE01E80DF11D8081803321F49A2D997E9D
:101AA000A92E09C0A2FE06C0B394B39404C08A2D27
:101AB000867809F0B394A3FC10C0A0FE06C0B2144F
:101AC00080F4280C922C9B180DC0B21458F4B60167
:101AD00080E290E076D0B394F8CFB21418F42B18CB
:101AE00002C0982C212CA4FE0FC0B60180E390E028
:101AF00068D0A2FE16C0A1FC03C088E790E002C037
:101B000088E590E0B6010CC08A2D867851F0A1FEE0
:101B100002C08BE201C080E2A7FC8DE2B60190E03A
:101B200050D0891430F4B60180E390E04AD09A9402
:101B3000F8CF8A94F301E80DF11D8081B60190E0A1
:101B400040D08110F6CF222009F44ECEB60180E2BB
:101B500090E037D02A94F7CFF6018681978102C0B2
:101B60008FEF9FEF2B960FB6F894DEBF0FBECDBF61
:101B7000DF91CF911F910F91FF90EF90DF90CF9069
:101B8000BF90AF909F908F907F906F905F904F909D
:101B90003F902F900895FC01059061507040011016
:101BA000D8F7809590958E0F9F1F0895FC01615086
:101BB000704001900110D8F7809590958E0F9F1F6F
:101BC00008950F931F93CF93DF93FB01238121FD92
:101BD00003C08FEF9FEF2CC022FF16C046815781B4
:101BE000248135814217530744F4A081B1819D01BE
:101BF0002F5F3F4F318320838C93268137812F5F66
:101C00003F4F3783268314C08B01EC01FB01008416
:101C1000F185E02D0995892BE1F6D80116968D9175
:101C20009C911797019617969C938E931697CE01C9
:101C3000DF91CF911F910F910895FA01AA272830C3
:101C400051F1203181F1E8946F936E7F6E5F7F4F89
:101C50008F4F9F4FAF4FB1E03ED0B4E03CD0670F05
:101C6000781F891F9A1FA11D680F791F8A1F911D58
:101C7000A11D6A0F711D811D911DA11D20D009F4A8
:101C800068943F912AE0269F11243019305D3193EA
:101C9000DEF6CF010895462F4770405D4193B3E0D3
:101CA0000FD0C9F7F6CF462F4F70405D4A3318F07A
:101CB000495D31FD4052419302D0A9F7EACFB4E02B
:101CC000A6959795879577956795BA95C9F70097E3
:101CD0006105710508959B01AC010A2E0694579584
:101CE000479537952795BA95C9F7620F731F841FDB
:0A1CF000951FA01D0895F894FFCF82
:101CFA00FE010000010102504552430049444F20B1
:101D0A00535A45524B45535A544553450049444F3B
:101D1A0020454C4D454E5456452020202000253064
:101D2A0032643A253032642025313073002530344C
:101D3A0064253032642530326420253032642530FF
:101D4A003264202530326400444154554D20535AA0
:101D5A0045524B2E2020202000444154554D204509
:101D6A004C4D454E545645202000253034642D25CF
:101D7A003032642D253032642025357300484F4EA9
:041D8A0041500000C4
:00000001FF
