S00F000070726F6A6563742E737265631E
S113000055C000002CC600006FC000006DC0000089
S11300106BC0000069C0000067C0000065C000003C
S113002063C0000061C000005FC000005DC000004C
S11300305BC0000059C0000057C0000055C000005C
S11300409EC5000051C000004FC000004DC000001C
S11300504BC000000EC6000047C0000045C00000B1
S113006043C0000010C600003FC000003DC00000B7
S11300703BC0000039C0000037C0000035C000009C
S113008033C0000031C000002FC000002DC00000AC
S11300902BC00000E501B101E501E701E501E7013D
S11300A0E501E501E701E501E701E50111241FBED2
S11300B0CFEFD0E1DEBFCDBF11E0A0E0B1E0EEEFC5
S11300C0FCE100E00BBF02C007900D92A039B1071C
S11300D0D9F721E0A0E9B1E001C01D92AF3AB2071F
S11300E0E1F77DD10C947D0E8BCF82E08093D80014
S11300F090E29093DB0093E09093DE008093E20023
S113010084E08093E30083E18093E40080E020C0F6
S1130110982F9295907F9093ED001092EE0010929C
S1130120EF001092F0001092F1001092F200109281
S1130130F3001092F4001092F5001092F600109261
S1130140F7001092F9001092F8001092FA008F5FF5
S11301508F30F0F2EBEDF0E08081806880830895C9
S1130160EF92FF920F938295807F8093ED0010921F
S1130170EE00222359F1842F880F880F880F809373
S1130180F000DB01CA01689414F8B695A795979519
S113019087951694D1F78093F100DB01CA01072EED
S11301A07DE0B695A795979587957A95D1F7702DAB
S11301B08093F200032E35E1769567955795479520
S11301C03A95D1F7302D4093F30010C0842F8295D7
S11301D0880F807E8093F200689412F87695679574
S11301E0579547951694D1F74093F300EFEEF0E05E
S11301F0808190E1299F90011124282B208380E0A5
S113020007C0F701E80FF11D90819093FA008F5F0A
S11302108017B8F300640093EF000F91FF90EF9004
S1130220089588B1886088B982E08A95F1F700C0A2
S113023088B1877F88B90895CF93DF932FE788E348
S113024091E0215080409040E1F700C0000080E33D
S113025088B9E7DF2AE62A95F1F700C0D0E2D8B9D9
S1130260E0DFC0E8C8B9DDDF8AE68A95F1F700C0AF
S1130270D8B9D7DFC8B9D5DF9AE69A95F1F700C0A7
S113028018B8CFDF80EF88B9CCDF2AE62A95F1F7DA
S113029000C018B8C6DF80E188B9C3DF8FE99FE0EA
S11302A00197F1F700C0000018B8BBDF80E688B9F9
S11302B0B8DF8FE19EE40197F1F700C00000DF9101
S11302C0CF910895CF93C82F2AE62A95F1F700C05D
S11302D0807F846088B9A5DF20E1C29FC00111241A
S11302E0846088B99EDFCF910895CF932AE62A953A
S11302F0F1F700C0833460F4C82FC068807F806841
S113030088B98FDF20E1C29FC001112488B989DF39
S1130310CF910895CF93DF93EC0102C02196D2DFF1
S113032088818111FBCFDF91CF91089511B88FE1BE
S113033082B91AB881E08BB98FEF84B915B886E019
S113034080BB81BB8CEF87B918B80895AB0190E0EE
S1130350FC013197EC30F105B8F5E65BFF4F0C94E6
S1130360760B9B01329522952F7023273F7023270C
S1130370AEE3BAE00E947F0B20E931E0BC01629F4A
S1130380C001639F900D729F900D11244817590767
S113039001F1CA0183709927892BE9F49A013695F2
S11303A0279536952795ABE7B4E10E947F0B969588
S11303B0879564E6689F9001699F300D1124421768
S11303C0530759F48CE1089508958FE108958EE15F
S11303D008958DE108958CE108958DE10895CF93FA
S11303E0DF93CDB7DEB7E9970FB6F894DEBF0FBE43
S11303F0CDBF9CDF5ED465D483E390E07FD71CDF60
S113040066D4BDD572DE78948091A401882309F462
S1130410DCC1009942C08091A00181113EC080914D
S11304200201823011F0811135C095B181E0892734
S113043085B9109202011092920185E0E3E0F1E0A7
S1130440A7EAB1E001900D928A95E1F78091A501A8
S11304509091A60190939B0180939A018091010150
S1130460813019F41092010115C0811113C081E08B
S113047080930101C0909301D0909401E090950184
S11304800091960120919701409198016091990102
S113049080E07ED581E08093A001009B06C080911E
S11304A0A001813011F41092A001049941C08091FF
S11304B09C0181113DC08091020181508230A8F5D8
S11304C085B191E0892785B9909302011092920138
S11304D0E7EAF1E08EE491E49183808380E590E0A3
S11304E0938382838091A5019091A60190939B01AF
S11304F080939A0180910001813019F410920001D7
S113050014C0811112C081E080930001C090930156
S1130510D0909401E090950100919601209197016B
S1130520409198016091990133D581E080939C01B9
S1130530049B06C080919C01813011F410929C01AF
S1130540039961C080919D0181115DC08091020178
S1130550811126C080919201813021F08F5F8093B8
S1130560920102C01092920180919201882319F0A5
S1130570813059F045C085E0E3E0F1E0A7EAB1E05D
S113058001900D928A95E1F73BC0E7EAF1E08FE430
S113059092E59183808381E490E09383828330C0E9
S11305A0813071F580919201823021F08F5F8093C8
S11305B0920102C01092920180919201813079F0EF
S11305C018F08230B1F01CC0E7EAF1E08EE491E467
S11305D09183808380E590E09383828311C086E0D9
S11305E0E9E8F1E0A7EAB1E001900D928A95E1F71C
S11305F007C0E7EAF1E085E496E5918380831282FF
S113060081E080939D01039B06C080919D01813010
S113061011F410929D0101995EC080919F01811196
S11306205AC08091020181111DC0809192018823DA
S113063019F0813061F04CC0809198018B3321F026
S11306408F5F8093980144C01092980141C08091BB
S11306509701873121F08F5F8093970139C0109201
S1130660970136C08130A1F5809192018130B9F0B3
S113067018F0823001F12CC06091930170919401C3
S11306808091950163DE90919601891721F09F5F17
S1130690909396011DC081E08093960119C08091CA
S11306A095018C3021F08F5F8093950111C081E01A
S11306B0809395010DC080919301909194018333AF
S11306C028E0920729F00196909394018093930176
S11306D081E080939F01019B06C080919F0181303E
S11306E011F410929F01029966C080919E018111BC
S11306F062C08091020181111FC080919201882300
S113070019F0813069F054C080919801882321F058
S11307108150809398014CC08BE38093980148C02A
S113072080919701882321F081508093970140C0E4
S113073087E1809397013CC08130D1F5809192018B
S11307408130B1F018F08230F9F032C08091960116
S1130750813021F08150809396012AC060919301E9
S11307607091940180919501F1DD8093960120C0F0
S113077080919501813021F081508093950118C0BA
S11307808CE08093950114C0809193019091940121
S1130790803D67E0960731F0019790939401809330
S11307A0930106C083E398E09093940180939301AE
S11307B081E080939E01029B06C080919E0181305E
S11307C011F410929E011092A4018091A301882338
S11307D009F430C180910201811176C08091A50194
S11307E09091A60120919A0130919B01821B930B59
S11307F084369105D0F480910101811109C091E101
S1130800E8E0F1E0DE01119601900D929A95E1F78E
S1130810813009F059C081E1E9E1F1E0DE0111968E
S113082001900D928A95E1F74FC0809101018111E9
S11308301AC087EA91E09F938F93809198011F9249
S11308408F93809197011F928F938AE291E09F93F7
S11308508F93CE0101969F938F9374D70FB6F8941C
S1130860DEBF0FBECDBF80910101813069F580915B
S113087091018F93809190018F93809198011F92A1
S11308808F93809197011F928F93809196011F926D
S11308908F93809195011F928F93809194018F93F0
S11308A0809193018F9389E391E09F938F93CE017D
S11308B001969F938F9346D782E0809302010FB6EF
S11308C0F894DEBF0FBECDBF80910201813009F0E4
S11308D07CC08091A5019091A60120919A0130914C
S11308E09B01821B930B84369105D0F48091000107
S11308F0811109C091E1E4E5F1E0DE011196019076
S11309000D929A95E1F7813009F05FC081E1E5E647
S1130910F1E0DE01119601900D928A95E1F755C040
S113092080910001811120C087EA91E09F938F9309
S1130930809196011F928F93809195011F928F93BE
S1130940809194018F93809193018F9386E791E036
S11309509F938F93CE0101969F938F93F3D60FB6F7
S1130960F894DEBF0FBECDBF80910001813069F5E0
S1130970809191018F93809190018F938091980140
S11309801F928F93809197011F928F93809196016C
S11309901F928F93809195011F928F938091940160
S11309A08F93809193018F9389E391E09F938F9329
S11309B0CE0101969F938F93C5D682E08093020166
S11309C00FB6F894DEBF0FBECDBF80910201823016
S11309D051F5809191018F93809190018F93809133
S11309E098011F928F93809197011F928F9380910A
S11309F096011F928F93809195011F928F938091FE
S1130A0094018F93809193018F9389E391E09F9355
S1130A108F93CE0101969F938F9394D60FB6F8943B
S1130A20DEBF0FBECDBF80E060DCCE01019672DC7C
S1130A301092A3018091A2018823B9F08091020150
S1130A40823089F40F2EF3E9EF2EF1E0FF2EF02D22
S1130A5005E911E026E931E047E951E068E971E090
S1130A6089E991E057D31092A2018091A1018823D2
S1130A7009F4CACC40919301509194019A0136959E
S1130A80279536952795ABE7B4E139D6BC01769521
S1130A90679524E6269FC001279F900D1124BA0173
S1130AA0681B790B70919501872F8E7020919601A8
S1130AB0322F3370422F4C7190919901592F5370FA
S1130AC09C7370FBAA24A0F8B12CF501F695FE2FB7
S1130AD0EE27F795E7956E2B6BAB60E4369F90019C
S1130AE0112486958862282B2CAB80919701282F9E
S1130AF030E0220F331F220F331F220F331F842FA6
S1130B0086958695282B2DAB80E4589F900111245F
S1130B1080919801282B2EAB9695969590639FAB68
S1130B20CE01C3967C0105E020E04EEF51E060E089
S1130B3070E080E015DB5BD19595879590939101EA
S1130B40809390019C01220F331F880F991F880FF7
S1130B50991F880F991F820F931F885E934088AF57
S1130B6099AFCE01C8967C0102E020E04FEF51E03E
S1130B7060E070E081E0F4DA1092A10145CC1F92AC
S1130B800F920FB60F9211242F933F934F935F93BD
S1130B906F937F938F939F93AF93BF934091A501DE
S1130BA05091A6014F5F5F4F5093A6014093A5015A
S1130BB081E08093A4019A01ADECBCECA0D596959C
S1130BC0879596958795969587959C01220F331F57
S1130BD0880F991F880F991F880F991F820F931FE1
S1130BE04817590719F481E08093A3019A013695B7
S1130BF02795ABE7B4E183D59695879562E3689F23
S1130C009001699F300D11244217530719F481E0B4
S1130C108093A2019A013695279536952795ABE7DF
S1130C20B4E16DD59695879564E6689F9001699FB8
S1130C30300D11244217530719F481E08093A10168
S1130C40BF91AF919F918F917F916F915F914F91E0
S1130C503F912F910F900FBE0F901F9018951F92E8
S1130C600F920FB60F9211240F900FBE0F901F908A
S1130C7018951F920F920FB60F9211240F900FBE6A
S1130C800F901F9018951F920F920FB60F92112478
S1130C908F939F9380917800909179009093AE0107
S1130CA08093AD019F918F910F900FBE0F901F9075
S1130CB018958DE084BD8DE487BD82E080936E003D
S1130CC0089582E08093690081E08DBB08951092BD
S1130CD07C00EAE7F0E08FE8808380818064808391
S1130CE0089514B815B8089591E094B9813011F4B9
S1130CF085B90895811101C015B80895CF93C0E056
S1130D0015C080E0F1DF87EE93E00197F1F700C0B2
S1130D100000E7DF9AEB9A95F1F700C0189BC1E059
S1130D208BE593E00197F1F700C00000CC2349F371
S1130D30CF910895CF93C82F80E0D6DFC13049F416
S1130D408DE08A95F1F70000CCDF88EC8A95F1F705
S1130D5007C0C11105C085ED8A95F1F70000C1DF18
S1130D6085E08A95F1F70000CF91089580E0BCDF1B
S1130D7085E08A95F1F70000B4DF8AE38A95F1F7FC
S1130D8000C093B1892F817090FF08C0189905C0E5
S1130D908AEB8A95F1F700C0089581E00895CF9316
S1130DA0DF93D82FC0E01EC08D2F90E09C010C2E45
S1130DB002C0359527950A94E2F720FD03C080E030
S1130DC0B9DF0FC021E030E00C2E02C0220F331F28
S1130DD00A94E2F7822393232817390711F481E058
S1130DE0A9DFCF5FC83000F3DF91CF9108950F934F
S1130DF01F93CF9383DF8CECD2DF84E4D0DFB6DFA4
S1130E008823E9F37BDF8CECCADF8EEBC8DFC0E01C
S1130E1000E010E00BC0AADF90E00C2E02C0880FA7
S1130E20991F0A94E2F7082B192BCF5FC03198F36E
S1130E3065DFC801CF911F910F9108958436C8F4DE
S1130E409DEC899F912D1124492F469546954695F1
S1130E50440F242F220F220F420F841B482F9695F4
S1130E609695969580E1989F90011124842F822B6A
S1130E7008958FEF0895982F92959F708F70990F12
S1130E80292F220F220F920F890F08958F929F927C
S1130E90AF92BF92DF92EF92FF920F931F93CF9383
S1130EA0DF937C01562FD42E8C0116950795169549
S1130EB007959801ABE7B4E122D4EC01D695C79528
S1130EC0652F70E080E090E0BCD226E636E646E28C
S1130ED050E496D32DEC3CEC4CE45EE31AD2ECD215
S1130EE04B015C016D2D70E080E090E0AAD2A50179
S1130EF0940110D24B015C01BE017727660F771F66
S1130F00072E000C880B990B9CD29B01AC01C501E8
S1130F10B401FFD14B015C01B70180E090E08FD2B6
S1130F20A5019401F7D14B015C01B80180E090E088
S1130F3086D2C2D29B01AC01C501B401EBD14B01F5
S1130F405C016C2F6695669570E080E090E079D244
S1130F50B3D29B01AC01C501B401DCD13FD2CB01BA
S1130F6067E070E0B0D3DF91CF911F910F91FF90B4
S1130F70EF90DF90BF90AF909F908F9008951AB834
S1130F8081E08BB988E08093B8001092B90008958D
S1130F90CF92DF92EF920F931F93CF93DF93C82FDB
S1130FA0142FD22F94EA9093BC009091BC00992303
S1130FB0E4F79091B900987F983011F08091B900CE
S1130FC090ED9093BB0094E89093BC009091BC008A
S1130FD09923E4F79091B900987F983111F08091AA
S1130FE0B900C11103C01092BB0005C0C13019F48F
S1130FF083E08093BB0094E89093BC009091BC0084
S11310009923E4F79091B900987F983211F0809178
S1131010B900C11105C0862F11DF8093BB0008C041
S1131020C13031F4402F6E2DC60130DF8093BB00F8
S113103084E88093BC008091BC008823E4F780910D
S1131040B900887F883211F08091B900C11105C0C0
S1131050812FF4DE8093BB0006C0C13021F4802FC1
S1131060EDDE8093BB0084E88093BC008091BC00DB
S11310708823E4F78091B900887F883211F0809149
S1131080B900C11105C08D2FD9DE8093BB0006C005
S1131090C13021F48E2DD2DE8093BB0084E880938E
S11310A0BC008091BC008823E4F78091B900887F5C
S11310B0883211F08091B900C13099F496013695C7
S11310C0279536952795ABE7B4E119D3969587957F
S11310D03C2D24E6829F30191124832FAFDE8093A8
S11310E0BB0084E88093BC008091BC008823E4F7B3
S11310F08091B900887F883211F08091B90084E929
S11311008093BC00DF91CF911F910F91EF90DF90FE
S1131110CF9008958F929F92AF92BF92CF92DF9219
S1131120EF92FF920F931F93CF93DF934C015B01D8
S11311306A01E90184EA8093BC008091BC008823A1
S1131140E4F78091B900887F883011F08091B9006C
S113115080ED8093BB0084E88093BC008091BC0048
S11311608823E4F78091B900887F883111F0809159
S1131170B9001092BB0084E88093BC008091BC004D
S11311808823E4F78091B900887F883211F0809138
S1131190B90084EA8093BC008091BC008823E4F702
S11311A08091B900887F803111F08091B90081ED80
S11311B08093BB0084E88093BC008091BC008823AA
S11311C0E4F78091B900887F803411F08091B900F0
S11311D084EC8093BC008091BC008823E4F7809168
S11311E0B900887F803511F08091B9008091BB00EF
S11311F08F7741DEF401808384EC8093BC0080917E
S1131200BC008823E4F78091B900887F803511F011
S11312108091B9008091BB002EDEF501808384ECBF
S11312208093BC008091BC008823E4F78091B900CE
S1131230887F803511F08091B9008091BB001BDE5E
S1131240F601808384EC8093BC008091BC008823E9
S1131250E4F78091B900887F803511F08091B9005E
S11312608091BB0084EC8093BC008091BC008823F7
S1131270E4F78091B900887F803511F08091B9003E
S11312808091BB00F8DD888384EC8093BC0080915E
S1131290BC008823E4F78091B900887F803511F081
S11312A08091B9008091BB00E6DDF801808384E879
S11312B08093BC008091BC008823E4F78091B9003E
S11312C0887F883511F08091B9008091BB00D3DD0F
S11312D090E08053984FF7019183808384E9809351
S11312E0BC00DF91CF911F910F91FF90EF90DF90A1
S11312F0CF90BF90AF909F908F9008959093C5002A
S11313008093C4008EE08093C20088E98093C1007A
S113131008955058BB27AA270ED021C112D130F00E
S113132017D120F031F49F3F11F41EF407C10EF4DD
S1131330E095E7FBD4C0E92F23D180F3BA17620705
S113134073078407950718F071F49EF552C10EF4E3
S1131350E0950B2EBA2FA02D0B01B90190010C01C1
S1131360CA01A0011124FF27591B99F0593F50F4D9
S1131370503E68F11A16F040A22F232F342F442731
S1131380585FF3CF469537952795A795F040539529
S1131390C9F77EF41F16BA0B620B730B840BBAF0F9
S11313A09150A1F0FF0FBB1F661F771F881FC2F764
S11313B00EC0BA0F621F731F841F48F48795779578
S11313C06795B795F7959E3F08F0B3CF9395880F2F
S11313D008F09927EE0F97958795089504D068949F
S11313E0B11108C10895D4D088F09F5790F0B92F57
S11313F09927B751A0F0D1F0660F771F881F991F66
S11314001AF0BA95C9F712C0B13081F0F2D0B1E048
S11314100895EFC0672F782F8827B85F39F0B93F58
S1131420CCF3869577956795B395D9F73EF4909567
S11314308095709561957F4F8F4F9F4F0895E894E5
S113144009C097FB3EF490958095709561957F4F08
S11314508F4F9F4F9923A9F0F92F96E9BB279395B6
S1131460F695879577956795B795F111F8CFFAF4C6
S1131470BB0F11F460FF1BC06F5F7F4F8F4F9F4FF7
S113148016C0882311F096E911C0772321F09EE855
S1131490872F762F05C0662371F096E8862F70E0BB
S11314A060E02AF09A95660F771F881FDAF7880F95
S11314B09695879597F9089585D080F09F3740F4E5
S11314C091110EF097C060E070E080E89FEB089502
S11314D026F41B16611D711D811D07C021C097F9DB
S11314E09F6780E870E060E00895882371F47723B3
S11314F021F09850872B762F07C0662311F4992783
S11315000DC09051862B70E060E02AF09A95660F2A
S1131510771F881FDAF7880F9695879597F90895AE
S11315209F3F31F0915020F4879577956795B79553
S1131530880F911D9695879597F908959FEF80ECF4
S1131540089500240A941616170618060906089525
S113155000240A9412161306140605060895092E8B
S11315600394000C11F4882352F0BB0F40F4BF2BFA
S113157011F460FF04C06F5F7F4F8F4F9F4F08953A
S113158057FD9058440F551F59F05F3F71F0479530
S1131590880F97FB991F61F09F3F79F08795089515
S11315A0121613061406551FF2CF4695F1DF08C034
S11315B0161617061806991FF1CF86957105610551
S11315C008940895E5DFA0F0BEE7B91788F4BB27B7
S11315D09F3860F41616B11D672F782F8827985FFF
S11315E0F7CF869577956795B11D93959639C8F38E
S11315F00895E894BB2766277727CB0197F90895C8
S11316000BD0ADCF9EDF28F0A3DF18F0952309F0AF
S113161066CF94CF1124EECFB3DFA0F3959FD1F31F
S1131620950F50E0551F629FF001729FBB27F00D8C
S1131630B11D639FAA27F00DB11DAA1F649F6627E1
S1131640B00DA11D661F829F2227B00DA11D621F30
S1131650739FB00DA11D621F839FA00D611D221FEA
S1131660749F3327A00D611D231F849F600D211DCE
S1131670822F762F6A2F11249F5750408AF0E1F071
S113168088234AF0EE0FFF1FBB1F661F771F881FBA
S113169091505040A9F79E3F510570F020CFAACF3A
S11316A05F3FECF3983EDCF3869577956795B795A5
S11316B0F795E7959F5FC1F7FE2B880F911D9695CF
S11316C0879597F9089597FB072E16F4009406D092
S11316D077FD08D023D007FC05D03EF49095819582
S11316E09F4F0895709561957F4F0895EE0FFF1FEA
S11316F00024001C0BBE0790F691E02D0994A29FD4
S1131700B001B39FC001A39F700D811D1124911DD1
S1131710B29F700D811D1124911D0895AA1BBB1B3E
S113172051E107C0AA1FBB1FA617B70710F0A61BDD
S1131730B70B881F991F5A95A9F780959095BC01FE
S1131740CD0108950F931F93CF93DF93CDB7DEB7E9
S11317502E970FB6F894DEBF0FBECDBF0D891E893C
S113176086E08C831A8309838FEF9FE79E838D83A2
S1131770AE01475E5F4F6F89788DCE01019610D020
S1131780EF81F885E00FF11F10822E960FB6F894C2
S1131790DEBF0FBECDBFDF91CF911F910F91089592
S11317A02F923F924F925F926F927F928F929F926D
S11317B0AF92BF92CF92DF92EF92FF920F931F935B
S11317C0CF93DF93CDB7DEB72B970FB6F894DEBF78
S11317D00FBECDBF6C017B018A01FC01178216820A
S11317E0838181FFBFC1CE0101963C01F601938143
S11317F0F70193FD859193FF81917F01882309F47B
S1131800ADC1853239F493FD859193FF81917F01B8
S1131810853221F4B60190E0D6D1E8CF912C212C69
S1131820312CFFE1F315D8F08B3279F038F48032A3
S113183079F08332A1F4232D20611DC08D3261F033
S1131840803369F4232D216016C0832D8260382EE5
S1131850E32DE4603E2E2AC0F32DF8601DC037FC52
S11318602DC020ED280F2A3040F08E32B9F436FC1A
S113187075C1232D2064322E19C036FE06C08AE0BD
S1131880989E200D1124922E11C0EAE02E9E200D68
S11318901124222EF32DF0623F2E08C08C3621F441
S11318A0832D8068382E02C0883641F4F70193FDF9
S11318B0859193FF81917F018111B3CF982F9F7DF3
S11318C09554933028F40C5F1F4F9FE399830DC008
S11318D0833631F0833771F0833509F055C020C069
S11318E0F801808189830E5F1F4F88248394912C93
S11318F0530112C02801F2E04F0E511CF801A080E0
S1131900B18036FE03C0692D70E002C06FEF7FEF37
S1131910C5014ED14C018201F32DFF773F2E15C036
S1131920280122E0420E511CF801A080B18036FE4D
S113193003C0692D70E002C06FEF7FEFC5012DD1A8
S11319404C01F32DF0683F2E820133FC19C0822D27
S113195090E088169906A0F4B60180E290E033D1B5
S11319602A94F5CFF50137FC859137FE81915F010B
S1131970B60190E028D121102A9421E0821A91081E
S11319808114910479F7E1C0843611F0893639F570
S1131990F80137FE07C060817181828193810C5FF9
S11319A01F4F08C060817181072E000C880B990BB2
S11319B00E5F1F4FF32DFF763F2E97FF09C09095C2
S11319C08095709561957F4F8F4F9F4FF0683F2EA4
S11319D02AE030E0A30133D1882E861844C085372D
S11319E031F4232D2F7EB22E2AE030E025C0932D32
S11319F0997FB92E8F36C1F018F4883579F0AEC0CE
S1131A00803719F0883721F0A9C0E92FE061BE2E94
S1131A10B4FE0DC0FB2DF460BF2E09C034FE0AC015
S1131A20292F2660B22E06C028E030E005C020E150
S1131A3030E002C020E132E0F801B7FE07C0608167
S1131A407181828193810C5F1F4F06C06081718117
S1131A5080E090E00E5F1F4FA301F1D0882E86181E
S1131A60FB2DFF773F2E36FE0DC0232D2E7FA22E99
S1131A70891458F434FE0BC032FC09C0832D8E7EC9
S1131A80A82E05C0B82CA32C03C0B82C01C0B92CB7
S1131A90A4FE0FC0FE01E80DF11D8081803321F406
S1131AA09A2D997EA92E09C0A2FE06C0B394B394C0
S1131AB004C08A2D867809F0B394A3FC10C0A0FE5C
S1131AC006C0B21480F4280C922C9B180DC0B214DA
S1131AD058F4B60180E290E076D0B394F8CFB21413
S1131AE018F42B1802C0982C212CA4FE0FC0B601A8
S1131AF080E390E068D0A2FE16C0A1FC03C088E792
S1131B0090E002C088E590E0B6010CC08A2D86788A
S1131B1051F0A1FE02C08BE201C080E2A7FC8DE27D
S1131B20B60190E050D0891430F4B60180E390E01F
S1131B304AD09A94F8CF8A94F301E80DF11D80817C
S1131B40B60190E040D08110F6CF222009F44ECEA9
S1131B50B60180E290E037D02A94F7CFF60186816F
S1131B60978102C08FEF9FEF2B960FB6F894DEBFDC
S1131B700FBECDBFDF91CF911F910F91FF90EF90DA
S1131B80DF90CF90BF90AF909F908F907F906F9099
S1131B905F904F903F902F900895FC010590615005
S1131BA070400110D8F7809590958E0F9F1F08956F
S1131BB0FC016150704001900110D8F78095909518
S1131BC08E0F9F1F08950F931F93CF93DF93FB01F5
S1131BD0238121FD03C08FEF9FEF2CC022FF16C08D
S1131BE046815781248135814217530744F4A081EB
S1131BF0B1819D012F5F3F4F318320838C932681D8
S1131C0037812F5F3F4F3783268314C08B01EC014C
S1131C10FB010084F185E02D0995892BE1F6D801BB
S1131C2016968D919C911797019617969C938E9377
S1131C301697CE01DF91CF911F910F910895FA016C
S1131C40AA27283051F1203181F1E8946F936E7FF7
S1131C506E5F7F4F8F4F9F4FAF4FB1E03ED0B4E0E8
S1131C603CD0670F781F891F9A1FA11D680F791F29
S1131C708A1F911DA11D6A0F711D811D911DA11D3A
S1131C8020D009F468943F912AE0269F112430194A
S1131C90305D3193DEF6CF010895462F4770405DE5
S1131CA04193B3E00FD0C9F7F6CF462F4F70405D94
S1131CB04A3318F0495D31FD4052419302D0A9F7EF
S1131CC0EACFB4E0A6959795879577956795BA95E9
S1131CD0C9F700976105710508959B01AC010A2EAF
S1131CE006945795479537952795BA95C9F7620F86
S1111CF0731F841F951FA01D0895F894FFCF45
S1131CFE010102504552430049444F20535A455264
S1131D0E4B45535A544553450049444F20454C4D79
S1131D1E454E5456452020202000253032643A2565
S1131D2E303264202531307300253034642530324E
S1131D3E6425303264202530326425303264202507
S1131D4E30326400444154554D20535A45524B2E63
S1131D5E2020202000444154554D20454C4D454EE5
S1131D6E545645202000253034642D253032642D00
S1131D7E253032642025357300484F4E4150000003
S9030000FC
