:1000000049C0000013C2000063C0000061C00000CE
:100010005FC000005DC000005BC0000059C0000070
:1000200057C0000055C0000053C0000051C0000080
:100030004FC000004DC000004BC0000049C0000090
:100040009BC1000045C0000043C0000041C000004B
:100050003FC00000F5C100003BC0000039C00000F7
:1000600037C00000F7C1000033C0000031C00000FD
:100070002FC000002DC000002BC0000029C00000D0
:1000800027C0000025C0000023C0000021C00000E0
:100090001FC0000011241FBECFEFD0E1DEBFCDBFD7
:1000A00011E0A0E0B1E0EAE5F3E100E00BBF02C03F
:1000B00007900D92A631B107D9F721E0A6E1B1E092
:1000C00001C01D92A032B207E1F795D00C94AB09A4
:1000D00097CF88B1886088B982E08A95F1F700C02F
:1000E00088B1877F88B90895CF93DF932FE788E39E
:1000F00091E0215080409040E1F700C0000080E393
:1001000088B9E7DF2AE62A95F1F700C0D0E2D8B92E
:10011000E0DFC0E8C8B9DDDF8AE68A95F1F700C004
:10012000D8B9D7DFC8B9D5DF9AE69A95F1F700C0FC
:1001300018B8CFDF80EF88B9CCDF2AE62A95F1F72F
:1001400000C018B8C6DF80E188B9C3DF8FE99FE03F
:100150000197F1F700C0000018B8BBDF80E688B94E
:10016000B8DF8FE19EE40197F1F700C00000DF9156
:10017000CF910895CF93C82F2AE62A95F1F700C0B2
:10018000807F846088B9A5DF20E1C29FC00111246F
:10019000846088B99EDFCF910895CF932AE62A958F
:1001A000F1F700C0833460F4C82FC068807F806896
:1001B00088B98FDF20E1C29FC001112488B989DF8F
:1001C000CF910895CF93DF93EC0102C02196D2DF47
:1001D00088818111FBCFDF91CF91089511B88FEF06
:1001E00082B986E080BB81BB1AB881E08BB98CEF05
:1001F00087B918B80895CF93DF93CDB7DEB7E297EC
:100200000FB6F894DEBF0FBECDBFE8DF39D140D1C5
:1002100083E390E0AAD368DF41D1EBD17894809159
:100220001B01882309F45CC000991EC0809118014D
:1002300081111AC010921601109206018BE2809370
:1002400005018FE080930401C0900001D09001016E
:10025000E0900201009103012FE04BE260E080E0BA
:10026000CED181E080931801009B06C080911801D7
:10027000813011F410921801019928C08091170162
:10028000811124C011E01093160184E180930301D1
:100290008BE08093020188EE97E0909301018093B8
:1002A00000010F2EF8EECF2EF7E0DF2EF02D0F2EEF
:1002B000FBE0EF2EF02D04E12091040140910501B7
:1002C0006091060181E09BD110931701019B06C04C
:1002D00080911701813011F41092170110921B01C7
:1002E00080911A01882379F1809103011F928F93E5
:1002F000809102011F928F93809101018F938091D1
:1003000000018F93809106011F928F9380910501C8
:100310001F928F93809104011F928F9387E091E049
:100320009F938F938E010F5F1F4F1F930F9338D5AD
:1003300080E033DFC80146DF10921A010FB6F8944F
:10034000DEBF0FBECDBF80911901882309F467CFAE
:100350000F2EF0E0EF2EF1E0FF2EF02D02E011E085
:1003600023E031E044E051E065E071E086E091E0B7
:1003700008D21092190153CF1F920F920FB60F920D
:1003800011242F933F934F935F936F937F938F939A
:100390009F93AF93BF9340911C0150911D014F5FFC
:1003A0005F4F50931D0140931C0181E080931B011E
:1003B0009A01ADECBCECD1D496958795969587952E
:1003C000969587959C01220F331F880F991F880FE0
:1003D000991F880F991F820F931F4817590719F407
:1003E00081E080931A019A0136952795ABE7B4E135
:1003F000B4D49695879562E3689F9001699F300D0C
:1004000011244217530719F481E080931901BF9119
:10041000AF919F918F917F916F915F914F913F919C
:100420002F910F900FBE0F901F9018951F920F9253
:100430000FB60F9211240F900FBE0F901F901895BA
:100440001F920F920FB60F9211240F900FBE0F90B4
:100450001F9018951F920F920FB60F9211248F9331
:100460009F93809178009091790090931F018093E1
:100470001E019F918F910F900FBE0F901F901895A6
:100480008DE084BD8DE487BD82E080936E00089589
:1004900082E08093690081E08DBB089510927C001A
:1004A000EAE7F0E08FE880838081806480830895AC
:1004B0008436C8F49DEC899F912D1124492F4695CF
:1004C00046954695440F242F220F220F420F841B7E
:1004D000482F96959695969580E1989F90011124C6
:1004E000842F822B08958FEF0895982F92959F70F7
:1004F0008F70990F292F220F220F920F890F0895C5
:100500008F929F92AF92BF92DF92EF92FF920F93E2
:100510001F93CF93DF937C01562FD42E8C01169519
:100520000795169507959801ABE7B4E116D4EC0151
:10053000D695C795652F70E080E090E0B9D226E6A9
:1005400036E646E250E493D32DEC3CEC4CE45EE31B
:1005500017D2E9D24B015C016D2D70E080E090E094
:10056000A7D2A50194010DD24B015C01BE017727F2
:10057000660F771F072E000C880B990B99D29B01F1
:10058000AC01C501B401FCD14B015C01B70180E0B5
:1005900090E08CD2A5019401F4D14B015C01B8012B
:1005A00080E090E083D2BFD29B01AC01C501B401D1
:1005B000E8D14B015C016C2F6695669570E080E098
:1005C00090E076D2B0D29B01AC01C501B401D9D183
:1005D0003CD2CB0167E070E0ADD3DF91CF911F91AA
:1005E0000F91FF90EF90DF90BF90AF909F908F9012
:1005F000089588E08093B8001092B9000895CF92D2
:10060000DF92EF920F931F93CF93DF93C82F142F96
:10061000D22F94EA9093BC009091BC009923E4F708
:100620009091B900987F983011F08091B90090EDC9
:100630009093BB0094E89093BC009091BC009923E8
:10064000E4F79091B900987F983111F08091B9004A
:10065000C11103C01092BB0005C0C13019F483E082
:100660008093BB0094E89093BC009091BC009923C8
:10067000E4F79091B900987F983211F08091B90019
:10068000C11105C0862F14DF8093BB0008C0C130A4
:1006900031F4402F6E2DC60133DF8093BB0084E818
:1006A0008093BC008091BC008823E4F78091B9005E
:1006B000887F883211F08091B900C11105C0812F67
:1006C000F7DE8093BB0006C0C13021F4802FF0DE3E
:1006D0008093BB0084E88093BC008091BC00882399
:1006E000E4F78091B900887F883211F08091B900D9
:1006F000C11105C08D2FDCDE8093BB0006C0C13068
:1007000021F48E2DD5DE8093BB0084E88093BC005D
:100710008091BC008823E4F78091B900887F8832FB
:1007200011F08091B900C13099F496013695279562
:1007300036952795ABE7B4E110D3969587953C2D78
:1007400024E6829F30191124832FB2DE8093BB00F0
:1007500084E88093BC008091BC008823E4F78091FA
:10076000B900887F883211F08091B90084E98093C4
:10077000BC00DF91CF911F910F91EF90DF90CF9050
:1007800008958F929F92AF92BF92CF92DF92EF9295
:10079000FF920F931F93CF93DF934C015B016A018C
:1007A000E90184EA8093BC008091BC008823E4F7CF
:1007B0008091B900887F883011F08091B90080ED78
:1007C0008093BB0084E88093BC008091BC008823A8
:1007D000E4F78091B900887F883111F08091B900E9
:1007E0001092BB0084E88093BC008091BC008823F9
:1007F000E4F78091B900887F883211F08091B900C8
:1008000084EA8093BC008091BC008823E4F7809147
:10081000B900887F803111F08091B90081ED80931B
:10082000BB0084E88093BC008091BC008823E4F77F
:100830008091B900887F803411F08091B90084ECF8
:100840008093BC008091BC008823E4F78091B900BC
:10085000887F803511F08091B9008091BB008F773F
:1008600044DEF401808384EC8093BC008091BC0062
:100870008823E4F78091B900887F803511F080915A
:10088000B9008091BB0031DEF501808384EC809358
:10089000BC008091BC008823E4F78091B900887F78
:1008A000803511F08091B9008091BB001EDEF60109
:1008B000808384EC8093BC008091BC008823E4F7A3
:1008C0008091B900887F803511F08091B9008091C6
:1008D000BB0084EC8093BC008091BC008823E4F7CB
:1008E0008091B900887F803511F08091B9008091A6
:1008F000BB00FBDD888384EC8093BC008091BC004E
:100900008823E4F78091B900887F803511F08091C9
:10091000B9008091BB00E9DDF801808384E8809311
:10092000BC008091BC008823E4F78091B900887FE7
:10093000883511F08091B9008091BB00D6DD90E040
:100940008053984FF7019183808384E98093BC00A2
:10095000DF91CF911F910F91FF90EF90DF90CF909B
:10096000BF90AF909F908F9008959093C500809313
:10097000C4008EE08093C20088E98093C10008958E
:100980005058BB27AA270ED021C112D130F017D161
:1009900020F031F49F3F11F41EF407C10EF4E095EE
:1009A000E7FBD4C0E92F23D180F3BA17620773079E
:1009B0008407950718F071F49EF552C10EF4E09586
:1009C0000B2EBA2FA02D0B01B90190010C01CA0109
:1009D000A0011124FF27591B99F0593F50F4503EB4
:1009E00068F11A16F040A22F232F342F4427585FA6
:1009F000F3CF469537952795A795F0405395C9F7BE
:100A00007EF41F16BA0B620B730B840BBAF0915075
:100A1000A1F0FF0FBB1F661F771F881FC2F70EC014
:100A2000BA0F621F731F841F48F4879577956795E7
:100A3000B795F7959E3F08F0B3CF9395880F08F0D0
:100A40009927EE0F97958795089504D06894B11172
:100A500008C10895D4D088F09F5790F0B92F9927F6
:100A6000B751A0F0D1F0660F771F881F991F1AF0B9
:100A7000BA95C9F712C0B13081F0F2D0B1E0089553
:100A8000EFC0672F782F8827B85F39F0B93FCCF3D4
:100A9000869577956795B395D9F73EF490958095AF
:100AA000709561957F4F8F4F9F4F0895E89409C0CF
:100AB00097FB3EF490958095709561957F4F8F4F91
:100AC0009F4F9923A9F0F92F96E9BB279395F695A7
:100AD000879577956795B795F111F8CFFAF4BB0F25
:100AE00011F460FF1BC06F5F7F4F8F4F9F4F16C089
:100AF000882311F096E911C0772321F09EE8872F13
:100B0000762F05C0662371F096E8862F70E060E0CE
:100B10002AF09A95660F771F881FDAF7880F969547
:100B2000879597F9089585D080F09F3740F491110B
:100B30000EF097C060E070E080E89FEB089526F427
:100B40001B16611D711D811D07C021C097F99F678C
:100B500080E870E060E00895882371F4772321F045
:100B60009850872B762F07C0662311F499270DC064
:100B70009051862B70E060E02AF09A95660F771FFF
:100B8000881FDAF7880F9695879597F908959F3F04
:100B900031F0915020F4879577956795B795880F38
:100BA000911D9695879597F908959FEF80EC08958C
:100BB00000240A941616170618060906089500243C
:100BC0000A9412161306140605060895092E0394B6
:100BD000000C11F4882352F0BB0F40F4BF2B11F42A
:100BE00060FF04C06F5F7F4F8F4F9F4F089557FD89
:100BF0009058440F551F59F05F3F71F04795880F8B
:100C000097FB991F61F09F3F79F087950895121621
:100C100013061406551FF2CF4695F1DF08C01616CD
:100C200017061806991FF1CF86957105610508947E
:100C30000895E5DFA0F0BEE7B91788F4BB279F3819
:100C400060F41616B11D672F782F8827985FF7CFAD
:100C5000869577956795B11D93959639C8F3089554
:100C6000E894BB2766277727CB0197F908950BD027
:100C7000ADCF9EDF28F0A3DF18F0952309F066CFF3
:100C800094CF1124EECFB3DFA0F3959FD1F3950F4E
:100C900050E0551F629FF001729FBB27F00DB11D00
:100CA000639FAA27F00DB11DAA1F649F6627B00D90
:100CB000A11D661F829F2227B00DA11D621F739F79
:100CC000B00DA11D621F839FA00D611D221F749F87
:100CD0003327A00D611D231F849F600D211D822FCE
:100CE000762F6A2F11249F5750408AF0E1F0882315
:100CF0004AF0EE0FFF1FBB1F661F771F881F915022
:100D00005040A9F79E3F510570F020CFAACF5F3F1A
:100D1000ECF3983EDCF3869577956795B795F79554
:100D2000E7959F5FC1F7FE2B880F911D96958795DC
:100D300097F9089597FB072E16F4009406D077FDD7
:100D400008D01AD007FC05D03EF4909581959F4FAE
:100D50000895709561957F4F0895A29FB001B39F4C
:100D6000C001A39F700D811D1124911DB29F700DB4
:100D7000811D1124911D0895AA1BBB1B51E107C0C1
:100D8000AA1FBB1FA617B70710F0A61BB70B881F1B
:100D9000991F5A95A9F780959095BC01CD010895AA
:100DA0000F931F93CF93DF93CDB7DEB72E970FB678
:100DB000F894DEBF0FBECDBF0D891E8986E08C83FF
:100DC0001A8309838FEF9FE79E838D83AE01475E71
:100DD0005F4F6F89788DCE01019610D0EF81F88535
:100DE000E00FF11F10822E960FB6F894DEBF0FBEF3
:100DF000CDBFDF91CF911F910F9108952F923F9218
:100E00004F925F926F927F928F929F92AF92BF921A
:100E1000CF92DF92EF92FF920F931F93CF93DF93C6
:100E2000CDB7DEB72B970FB6F894DEBF0FBECDBFA0
:100E30006C017B018A01FC0117821682838181FF8C
:100E4000BFC1CE0101963C01F6019381F70193FDEC
:100E5000859193FF81917F01882309F4ADC185328B
:100E600039F493FD859193FF81917F01853221F4BF
:100E7000B60190E0D6D1E8CF912C212C312CFFE1A6
:100E8000F315D8F08B3279F038F4803279F0833270
:100E9000A1F4232D20611DC08D3261F0803369F4EF
:100EA000232D216016C0832D8260382EE32DE4604F
:100EB0003E2E2AC0F32DF8601DC037FC2DC020ED5A
:100EC000280F2A3040F08E32B9F436FC75C1232D3C
:100ED0002064322E19C036FE06C08AE0989E200D8E
:100EE0001124922E11C0EAE02E9E200D1124222EF4
:100EF000F32DF0623F2E08C08C3621F4832D8068DC
:100F0000382E02C0883641F4F70193FD859193FF96
:100F100081917F018111B3CF982F9F7D955493309C
:100F200028F40C5F1F4F9FE399830DC0833631F087
:100F3000833771F0833509F055C020C0F8018081F6
:100F400089830E5F1F4F88248394912C530112C014
:100F50002801F2E04F0E511CF801A080B18036FE4E
:100F600003C0692D70E002C06FEF7FEFC5014ED165
:100F70004C018201F32DFF773F2E15C0280122E09E
:100F8000420E511CF801A080B18036FE03C0692DCD
:100F900070E002C06FEF7FEFC5012DD14C01F32D42
:100FA000F0683F2E820133FC19C0822D90E0881634
:100FB0009906A0F4B60180E290E033D12A94F5CFEF
:100FC000F50137FC859137FE81915F01B60190E014
:100FD00028D121102A9421E0821A910881149104C9
:100FE00079F7E1C0843611F0893639F5F80137FE1A
:100FF00007C060817181828193810C5F1F4F08C09F
:1010000060817181072E000C880B990B0E5F1F4FBA
:10101000F32DFF763F2E97FF09C090958095709530
:1010200061957F4F8F4F9F4FF0683F2E2AE030E051
:10103000A30133D1882E861844C0853731F4232D7F
:101040002F7EB22E2AE030E025C0932D997FB92E55
:101050008F36C1F018F4883579F0AEC0803719F0BA
:10106000883721F0A9C0E92FE061BE2EB4FE0DC083
:10107000FB2DF460BF2E09C034FE0AC0292F266064
:10108000B22E06C028E030E005C020E130E002C00A
:1010900020E132E0F801B7FE07C0608171818281F2
:1010A00093810C5F1F4F06C06081718180E090E0EA
:1010B0000E5F1F4FA301F1D0882E8618FB2DFF77FE
:1010C0003F2E36FE0DC0232D2E7FA22E891458F4FC
:1010D00034FE0BC032FC09C0832D8E7EA82E05C0C5
:1010E000B82CA32C03C0B82C01C0B92CA4FE0FC08F
:1010F000FE01E80DF11D8081803321F49A2D997E47
:10110000A92E09C0A2FE06C0B394B39404C08A2DD0
:10111000867809F0B394A3FC10C0A0FE06C0B214F8
:1011200080F4280C922C9B180DC0B21458F4B60110
:1011300080E290E076D0B394F8CFB21418F42B1874
:1011400002C0982C212CA4FE0FC0B60180E390E0D1
:1011500068D0A2FE16C0A1FC03C088E790E002C0E0
:1011600088E590E0B6010CC08A2D867851F0A1FE8A
:1011700002C08BE201C080E2A7FC8DE2B60190E0E4
:1011800050D0891430F4B60180E390E04AD09A94AC
:10119000F8CF8A94F301E80DF11D8081B60190E04B
:1011A00040D08110F6CF222009F44ECEB60180E265
:1011B00090E037D02A94F7CFF6018681978102C05C
:1011C0008FEF9FEF2B960FB6F894DEBF0FBECDBF0B
:1011D000DF91CF911F910F91FF90EF90DF90CF9013
:1011E000BF90AF909F908F907F906F905F904F9047
:1011F0003F902F900895FC010590615070400110C0
:10120000D8F7809590958E0F9F1F0895FC0161502F
:10121000704001900110D8F7809590958E0F9F1F18
:1012200008950F931F93CF93DF93FB01238121FD3B
:1012300003C08FEF9FEF2CC022FF16C0468157815D
:10124000248135814217530744F4A081B1819D0167
:101250002F5F3F4F318320838C93268137812F5F0F
:101260003F4F3783268314C08B01EC01FB010084C0
:10127000F185E02D0995892BE1F6D80116968D911F
:101280009C911797019617969C938E931697CE0173
:10129000DF91CF911F910F910895FA01AA2728306D
:1012A00051F1203181F1E8946F936E7F6E5F7F4F33
:1012B0008F4F9F4FAF4FB1E03ED0B4E03CD0670FAF
:1012C000781F891F9A1FA11D680F791F8A1F911D02
:1012D000A11D6A0F711D811D911DA11D20D009F452
:1012E00068943F912AE0269F11243019305D319394
:1012F000DEF6CF010895462F4770405D4193B3E07D
:101300000FD0C9F7F6CF462F4F70405D4A3318F023
:10131000495D31FD4052419302D0A9F7EACFB4E0D4
:10132000A6959795879577956795BA95C9F700978C
:101330006105710508959B01AC010A2E069457952D
:10134000479537952795BA95C9F7620F731F841F84
:0A135000951FA01D0895F894FFCF2B
:10135A00E8070B140F071425642564256420256407
:06136A002564256400006B
:00000001FF
